{
  "contractName": "ProductsContract",
  "abi": [
    {
      "inputs": [],
      "stateMutability": "nonpayable",
      "type": "constructor"
    },
    {
      "anonymous": false,
      "inputs": [
        {
          "indexed": false,
          "internalType": "uint256",
          "name": "id",
          "type": "uint256"
        },
        {
          "indexed": false,
          "internalType": "string",
          "name": "name",
          "type": "string"
        },
        {
          "indexed": false,
          "internalType": "string",
          "name": "description",
          "type": "string"
        },
        {
          "indexed": false,
          "internalType": "string",
          "name": "code",
          "type": "string"
        },
        {
          "indexed": false,
          "internalType": "bool",
          "name": "selled",
          "type": "bool"
        },
        {
          "indexed": false,
          "internalType": "uint256",
          "name": "registeredAt",
          "type": "uint256"
        },
        {
          "indexed": false,
          "internalType": "uint256",
          "name": "modifiedAt",
          "type": "uint256"
        }
      ],
      "name": "ProductCreated",
      "type": "event"
    },
    {
      "anonymous": false,
      "inputs": [
        {
          "indexed": false,
          "internalType": "uint256",
          "name": "id",
          "type": "uint256"
        },
        {
          "indexed": false,
          "internalType": "bool",
          "name": "selled",
          "type": "bool"
        },
        {
          "indexed": false,
          "internalType": "uint256",
          "name": "modifiedAt",
          "type": "uint256"
        }
      ],
      "name": "productToggleDone",
      "type": "event"
    },
    {
      "inputs": [],
      "name": "productCounter",
      "outputs": [
        {
          "internalType": "uint256",
          "name": "",
          "type": "uint256"
        }
      ],
      "stateMutability": "view",
      "type": "function",
      "constant": true
    },
    {
      "inputs": [
        {
          "internalType": "uint256",
          "name": "",
          "type": "uint256"
        }
      ],
      "name": "products",
      "outputs": [
        {
          "internalType": "uint256",
          "name": "id",
          "type": "uint256"
        },
        {
          "internalType": "string",
          "name": "name",
          "type": "string"
        },
        {
          "internalType": "string",
          "name": "description",
          "type": "string"
        },
        {
          "internalType": "string",
          "name": "code",
          "type": "string"
        },
        {
          "internalType": "bool",
          "name": "selled",
          "type": "bool"
        },
        {
          "internalType": "uint256",
          "name": "registeredAt",
          "type": "uint256"
        },
        {
          "internalType": "uint256",
          "name": "modifiedAt",
          "type": "uint256"
        }
      ],
      "stateMutability": "view",
      "type": "function",
      "constant": true
    },
    {
      "inputs": [
        {
          "internalType": "string",
          "name": "_name",
          "type": "string"
        },
        {
          "internalType": "string",
          "name": "_description",
          "type": "string"
        },
        {
          "internalType": "string",
          "name": "_code",
          "type": "string"
        }
      ],
      "name": "createProduct",
      "outputs": [],
      "stateMutability": "nonpayable",
      "type": "function"
    },
    {
      "inputs": [
        {
          "internalType": "uint256",
          "name": "_id",
          "type": "uint256"
        }
      ],
      "name": "toggleSelled",
      "outputs": [],
      "stateMutability": "nonpayable",
      "type": "function"
    }
  ],
  "bytecode": "0x6080604052600080553480156200001557600080fd5b50620000c86040518060400160405280600f81526020017f7072696d65722070726f647563746f00000000000000000000000000000000008152506040518060400160405280600c81526020017f656a656d706c6f207465737400000000000000000000000000000000000000008152506040518060400160405280600681526020017f4142433636360000000000000000000000000000000000000000000000000000815250620000ce60201b60201c565b62000735565b6040518060e0016040528060005481526020018481526020018381526020018281526020016000151581526020014281526020014281525060016000805481526020019081526020016000206000820151816000015560208201518160010190816200013b919062000483565b50604082015181600201908162000153919062000483565b5060608201518160030190816200016b919062000483565b5060808201518160040160006101000a81548160ff02191690831515021790555060a0820151816005015560c08201518160060155905050600080815480929190620001b79062000599565b91905055507f059e9735ea0dc271d8f2d62b400e7e99b3c50efd62ff90e7c997063ca464ef9060005484848460004242604051620001fc9796959493929190620006a3565b60405180910390a1505050565b600081519050919050565b7f4e487b7100000000000000000000000000000000000000000000000000000000600052604160045260246000fd5b7f4e487b7100000000000000000000000000000000000000000000000000000000600052602260045260246000fd5b600060028204905060018216806200028b57607f821691505b602082108103620002a157620002a062000243565b5b50919050565b60008190508160005260206000209050919050565b60006020601f8301049050919050565b600082821b905092915050565b6000600883026200030b7fffffffffffffffffffffffffffffffffffffffffffffffffffffffffffffffff82620002cc565b620003178683620002cc565b95508019841693508086168417925050509392505050565b6000819050919050565b6000819050919050565b6000620003646200035e62000358846200032f565b62000339565b6200032f565b9050919050565b6000819050919050565b620003808362000343565b620003986200038f826200036b565b848454620002d9565b825550505050565b600090565b620003af620003a0565b620003bc81848462000375565b505050565b5b81811015620003e457620003d8600082620003a5565b600181019050620003c2565b5050565b601f8211156200043357620003fd81620002a7565b6200040884620002bc565b8101602085101562000418578190505b620004306200042785620002bc565b830182620003c1565b50505b505050565b600082821c905092915050565b6000620004586000198460080262000438565b1980831691505092915050565b600062000473838362000445565b9150826002028217905092915050565b6200048e8262000209565b67ffffffffffffffff811115620004aa57620004a962000214565b5b620004b6825462000272565b620004c3828285620003e8565b600060209050601f831160018114620004fb5760008415620004e6578287015190505b620004f2858262000465565b86555062000562565b601f1984166200050b86620002a7565b60005b8281101562000535578489015182556001820191506020850194506020810190506200050e565b8683101562000555578489015162000551601f89168262000445565b8355505b6001600288020188555050505b505050505050565b7f4e487b7100000000000000000000000000000000000000000000000000000000600052601160045260246000fd5b6000620005a6826200032f565b91507fffffffffffffffffffffffffffffffffffffffffffffffffffffffffffffffff8203620005db57620005da6200056a565b5b600182019050919050565b620005f1816200032f565b82525050565b600082825260208201905092915050565b60005b83811015620006285780820151818401526020810190506200060b565b60008484015250505050565b6000601f19601f8301169050919050565b6000620006528262000209565b6200065e8185620005f7565b93506200067081856020860162000608565b6200067b8162000634565b840191505092915050565b60008115159050919050565b6200069d8162000686565b82525050565b600060e082019050620006ba600083018a620005e6565b8181036020830152620006ce818962000645565b90508181036040830152620006e4818862000645565b90508181036060830152620006fa818762000645565b90506200070b608083018662000692565b6200071a60a0830185620005e6565b6200072960c0830184620005e6565b98975050505050505050565b610e7780620007456000396000f3fe608060405234801561001057600080fd5b506004361061004c5760003560e01c80631f16653b146100515780637acc0b201461006f578063bdd7dd9f146100a5578063d768468b146100c1575b600080fd5b6100596100dd565b6040516100669190610722565b60405180910390f35b6100896004803603810190610084919061077d565b6100e3565b60405161009c9796959493929190610855565b60405180910390f35b6100bf60048036038101906100ba919061077d565b6102ca565b005b6100db60048036038101906100d69190610a0e565b6105d8565b005b60005481565b600160205280600052604060002060009150905080600001549080600101805461010c90610ae4565b80601f016020809104026020016040519081016040528092919081815260200182805461013890610ae4565b80156101855780601f1061015a57610100808354040283529160200191610185565b820191906000526020600020905b81548152906001019060200180831161016857829003601f168201915b50505050509080600201805461019a90610ae4565b80601f01602080910402602001604051908101604052809291908181526020018280546101c690610ae4565b80156102135780601f106101e857610100808354040283529160200191610213565b820191906000526020600020905b8154815290600101906020018083116101f657829003601f168201915b50505050509080600301805461022890610ae4565b80601f016020809104026020016040519081016040528092919081815260200182805461025490610ae4565b80156102a15780601f10610276576101008083540402835291602001916102a1565b820191906000526020600020905b81548152906001019060200180831161028457829003601f168201915b5050505050908060040160009054906101000a900460ff16908060050154908060060154905087565b6000600160008381526020019081526020016000206040518060e00160405290816000820154815260200160018201805461030490610ae4565b80601f016020809104026020016040519081016040528092919081815260200182805461033090610ae4565b801561037d5780601f106103525761010080835404028352916020019161037d565b820191906000526020600020905b81548152906001019060200180831161036057829003601f168201915b5050505050815260200160028201805461039690610ae4565b80601f01602080910402602001604051908101604052809291908181526020018280546103c290610ae4565b801561040f5780601f106103e45761010080835404028352916020019161040f565b820191906000526020600020905b8154815290600101906020018083116103f257829003601f168201915b5050505050815260200160038201805461042890610ae4565b80601f016020809104026020016040519081016040528092919081815260200182805461045490610ae4565b80156104a15780601f10610476576101008083540402835291602001916104a1565b820191906000526020600020905b81548152906001019060200180831161048457829003601f168201915b505050505081526020016004820160009054906101000a900460ff16151515158152602001600582015481526020016006820154815250509050806080015115816080019015159081151581525050428160c0018181525050806001600084815260200190815260200160002060008201518160000155602082015181600101908161052d9190610cc1565b5060408201518160020190816105439190610cc1565b5060608201518160030190816105599190610cc1565b5060808201518160040160006101000a81548160ff02191690831515021790555060a0820151816005015560c082015181600601559050507f6fdcdab40a3447c76c88e4e42d70304838cacac4d1763f4ae3a85fd2eb4c69d98282608001518360c001516040516105cc93929190610d93565b60405180910390a15050565b6040518060e0016040528060005481526020018481526020018381526020018281526020016000151581526020014281526020014281525060016000805481526020019081526020016000206000820151816000015560208201518160010190816106439190610cc1565b5060408201518160020190816106599190610cc1565b50606082015181600301908161066f9190610cc1565b5060808201518160040160006101000a81548160ff02191690831515021790555060a0820151816005015560c082015181600601559050506000808154809291906106b990610df9565b91905055507f059e9735ea0dc271d8f2d62b400e7e99b3c50efd62ff90e7c997063ca464ef90600054848484600042426040516106fc9796959493929190610855565b60405180910390a1505050565b6000819050919050565b61071c81610709565b82525050565b60006020820190506107376000830184610713565b92915050565b6000604051905090565b600080fd5b600080fd5b61075a81610709565b811461076557600080fd5b50565b60008135905061077781610751565b92915050565b60006020828403121561079357610792610747565b5b60006107a184828501610768565b91505092915050565b600081519050919050565b600082825260208201905092915050565b60005b838110156107e45780820151818401526020810190506107c9565b60008484015250505050565b6000601f19601f8301169050919050565b600061080c826107aa565b61081681856107b5565b93506108268185602086016107c6565b61082f816107f0565b840191505092915050565b60008115159050919050565b61084f8161083a565b82525050565b600060e08201905061086a600083018a610713565b818103602083015261087c8189610801565b905081810360408301526108908188610801565b905081810360608301526108a48187610801565b90506108b36080830186610846565b6108c060a0830185610713565b6108cd60c0830184610713565b98975050505050505050565b600080fd5b600080fd5b7f4e487b7100000000000000000000000000000000000000000000000000000000600052604160045260246000fd5b61091b826107f0565b810181811067ffffffffffffffff8211171561093a576109396108e3565b5b80604052505050565b600061094d61073d565b90506109598282610912565b919050565b600067ffffffffffffffff821115610979576109786108e3565b5b610982826107f0565b9050602081019050919050565b82818337600083830152505050565b60006109b16109ac8461095e565b610943565b9050828152602081018484840111156109cd576109cc6108de565b5b6109d884828561098f565b509392505050565b600082601f8301126109f5576109f46108d9565b5b8135610a0584826020860161099e565b91505092915050565b600080600060608486031215610a2757610a26610747565b5b600084013567ffffffffffffffff811115610a4557610a4461074c565b5b610a51868287016109e0565b935050602084013567ffffffffffffffff811115610a7257610a7161074c565b5b610a7e868287016109e0565b925050604084013567ffffffffffffffff811115610a9f57610a9e61074c565b5b610aab868287016109e0565b9150509250925092565b7f4e487b7100000000000000000000000000000000000000000000000000000000600052602260045260246000fd5b60006002820490506001821680610afc57607f821691505b602082108103610b0f57610b0e610ab5565b5b50919050565b60008190508160005260206000209050919050565b60006020601f8301049050919050565b600082821b905092915050565b600060088302610b777fffffffffffffffffffffffffffffffffffffffffffffffffffffffffffffffff82610b3a565b610b818683610b3a565b95508019841693508086168417925050509392505050565b6000819050919050565b6000610bbe610bb9610bb484610709565b610b99565b610709565b9050919050565b6000819050919050565b610bd883610ba3565b610bec610be482610bc5565b848454610b47565b825550505050565b600090565b610c01610bf4565b610c0c818484610bcf565b505050565b5b81811015610c3057610c25600082610bf9565b600181019050610c12565b5050565b601f821115610c7557610c4681610b15565b610c4f84610b2a565b81016020851015610c5e578190505b610c72610c6a85610b2a565b830182610c11565b50505b505050565b600082821c905092915050565b6000610c9860001984600802610c7a565b1980831691505092915050565b6000610cb18383610c87565b9150826002028217905092915050565b610cca826107aa565b67ffffffffffffffff811115610ce357610ce26108e3565b5b610ced8254610ae4565b610cf8828285610c34565b600060209050601f831160018114610d2b5760008415610d19578287015190505b610d238582610ca5565b865550610d8b565b601f198416610d3986610b15565b60005b82811015610d6157848901518255600182019150602085019450602081019050610d3c565b86831015610d7e5784890151610d7a601f891682610c87565b8355505b6001600288020188555050505b505050505050565b6000606082019050610da86000830186610713565b610db56020830185610846565b610dc26040830184610713565b949350505050565b7f4e487b7100000000000000000000000000000000000000000000000000000000600052601160045260246000fd5b6000610e0482610709565b91507fffffffffffffffffffffffffffffffffffffffffffffffffffffffffffffffff8203610e3657610e35610dca565b5b60018201905091905056fea26469706673582212208ef4cad1b0a61b6e1a31980536ca093af053c602bb9334478464f5dde2c2047164736f6c63430008130033",
  "immutableReferences": {},
  "source": "// SPDX-License-Identifier: MIT\r\npragma solidity ^0.8.19;\r\n\r\ncontract ProductsContract {\r\n    uint public productCounter = 0;\r\n\r\n    constructor () {\r\n        createProduct(\"primer producto\", \"ejemplo test\", \"ABC666\");\r\n    }\r\n\r\n    event ProductCreated(\r\n        uint id,\r\n        string name,\r\n        string description,\r\n        string code,\r\n        bool selled,\r\n        uint256 registeredAt,\r\n        uint256 modifiedAt\r\n    );\r\n\r\n    event productToggleDone (uint id, bool selled, uint256 modifiedAt);\r\n\r\n    struct Product{\r\n        uint256 id;\r\n        string name;\r\n        string description;\r\n        string code;\r\n        bool selled;\r\n        uint256 registeredAt; \r\n        uint256 modifiedAt;\r\n    }\r\n\r\n    mapping (uint256 => Product) public products;\r\n\r\n    function createProduct(string memory _name, string memory _description, string memory _code) public {\r\n        products[productCounter] = Product(productCounter, _name, _description, _code, false, block.timestamp, block.timestamp);\r\n        productCounter++;\r\n        emit ProductCreated(productCounter, _name, _description, _code, false, block.timestamp, block.timestamp);\r\n    }\r\n\r\n    function toggleSelled(uint _id) public {\r\n        Product memory _product = products[_id];\r\n        _product.selled = !_product.selled;\r\n        _product.modifiedAt = block.timestamp;\r\n        products[_id] = _product;\r\n        emit productToggleDone(_id, _product.selled, _product.modifiedAt);\r\n    }\r\n\r\n}",
  "sourcePath": "E:\\Universidad\\Sistemas Distribuidos\\PF\\pfsd\\nideacontract\\contracts\\ProductsContract.sol",
  "compiler": {
    "name": "solc",
    "version": "0.8.19+commit.7dd6d404.Emscripten.clang"
  },
  "schemaVersion": "3.4.14",
  "updatedAt": "2023-06-18T23:09:33.029Z",
  "networkType": "ethereum",
  "devdoc": {
    "kind": "dev",
    "methods": {},
    "version": 1
  },
  "userdoc": {
    "kind": "user",
    "methods": {},
    "version": 1
  }
}